{
  "_format": "hh-sol-artifact-1",
  "contractName": "wallet",
  "sourceName": "contracts/wallet.sol",
  "abi": [
    {
      "stateMutability": "payable",
      "type": "fallback"
    },
    {
      "inputs": [
        {
          "internalType": "address",
          "name": "",
          "type": "address"
        }
      ],
      "name": "balances",
      "outputs": [
        {
          "internalType": "uint256",
          "name": "",
          "type": "uint256"
        }
      ],
      "stateMutability": "view",
      "type": "function"
    },
    {
      "inputs": [],
      "name": "getbalance",
      "outputs": [
        {
          "internalType": "uint256",
          "name": "",
          "type": "uint256"
        }
      ],
      "stateMutability": "view",
      "type": "function"
    },
    {
      "inputs": [
        {
          "internalType": "address payable",
          "name": "_to",
          "type": "address"
        },
        {
          "internalType": "uint256",
          "name": "_amount",
          "type": "uint256"
        }
      ],
      "name": "withdraw",
      "outputs": [],
      "stateMutability": "nonpayable",
      "type": "function"
    },
    {
      "stateMutability": "payable",
      "type": "receive"
    }
  ],
  "bytecode": "0x6080604052348015600f57600080fd5b5061055c8061001f6000396000f3fe6080604052600436106100385760003560e01c806327e235e3146100945780634d9b3d5d146100d1578063f3fef3a3146100fc57610092565b3661009257346000803373ffffffffffffffffffffffffffffffffffffffff1673ffffffffffffffffffffffffffffffffffffffff168152602001908152602001600020600082825461008b91906102dd565b9250508190555b005b3480156100a057600080fd5b506100bb60048036038101906100b69190610374565b610125565b6040516100c891906103b0565b60405180910390f35b3480156100dd57600080fd5b506100e661013d565b6040516100f391906103b0565b60405180910390f35b34801561010857600080fd5b50610123600480360381019061011e9190610435565b610183565b005b60006020528060005260406000206000915090505481565b60008060003373ffffffffffffffffffffffffffffffffffffffff1673ffffffffffffffffffffffffffffffffffffffff16815260200190815260200160002054905090565b6000803373ffffffffffffffffffffffffffffffffffffffff1673ffffffffffffffffffffffffffffffffffffffff16815260200190815260200160002054811115610204576040517f08c379a00000000000000000000000000000000000000000000000000000000081526004016101fb906104d2565b60405180910390fd5b806000803373ffffffffffffffffffffffffffffffffffffffff1673ffffffffffffffffffffffffffffffffffffffff168152602001908152602001600020600082825461025291906104f2565b925050819055508173ffffffffffffffffffffffffffffffffffffffff166108fc829081150290604051600060405180830381858888f1935050505015801561029f573d6000803e3d6000fd5b505050565b6000819050919050565b7f4e487b7100000000000000000000000000000000000000000000000000000000600052601160045260246000fd5b60006102e8826102a4565b91506102f3836102a4565b925082820190508082111561030b5761030a6102ae565b5b92915050565b600080fd5b600073ffffffffffffffffffffffffffffffffffffffff82169050919050565b600061034182610316565b9050919050565b61035181610336565b811461035c57600080fd5b50565b60008135905061036e81610348565b92915050565b60006020828403121561038a57610389610311565b5b60006103988482850161035f565b91505092915050565b6103aa816102a4565b82525050565b60006020820190506103c560008301846103a1565b92915050565b60006103d682610316565b9050919050565b6103e6816103cb565b81146103f157600080fd5b50565b600081359050610403816103dd565b92915050565b610412816102a4565b811461041d57600080fd5b50565b60008135905061042f81610409565b92915050565b6000806040838503121561044c5761044b610311565b5b600061045a858286016103f4565b925050602061046b85828601610420565b9150509250929050565b600082825260208201905092915050565b7f496e73756666696369656e742062616c616e6365000000000000000000000000600082015250565b60006104bc601483610475565b91506104c782610486565b602082019050919050565b600060208201905081810360008301526104eb816104af565b9050919050565b60006104fd826102a4565b9150610508836102a4565b92508282039050818111156105205761051f6102ae565b5b9291505056fea264697066735822122092d55d11b31c51c9d335baf10bcfbd52fb3ba02f2356cc20b7b5bd182017539d64736f6c634300081c0033",
  "linkReferences": {},
  "deployedLinkReferences": {}
}